{
  "_format": "hh-sol-artifact-1",
  "contractName": "DegenToken",
  "sourceName": "contracts/DegenToken.sol",
  "abi": [
    {
      "inputs": [
        {
          "internalType": "address",
          "name": "owner",
          "type": "address"
        }
      ],
      "stateMutability": "nonpayable",
      "type": "constructor"
    },
    {
      "inputs": [
        {
          "internalType": "address",
          "name": "spender",
          "type": "address"
        },
        {
          "internalType": "uint256",
          "name": "allowance",
          "type": "uint256"
        },
        {
          "internalType": "uint256",
          "name": "needed",
          "type": "uint256"
        }
      ],
      "name": "ERC20InsufficientAllowance",
      "type": "error"
    },
    {
      "inputs": [
        {
          "internalType": "address",
          "name": "sender",
          "type": "address"
        },
        {
          "internalType": "uint256",
          "name": "balance",
          "type": "uint256"
        },
        {
          "internalType": "uint256",
          "name": "needed",
          "type": "uint256"
        }
      ],
      "name": "ERC20InsufficientBalance",
      "type": "error"
    },
    {
      "inputs": [
        {
          "internalType": "address",
          "name": "approver",
          "type": "address"
        }
      ],
      "name": "ERC20InvalidApprover",
      "type": "error"
    },
    {
      "inputs": [
        {
          "internalType": "address",
          "name": "receiver",
          "type": "address"
        }
      ],
      "name": "ERC20InvalidReceiver",
      "type": "error"
    },
    {
      "inputs": [
        {
          "internalType": "address",
          "name": "sender",
          "type": "address"
        }
      ],
      "name": "ERC20InvalidSender",
      "type": "error"
    },
    {
      "inputs": [
        {
          "internalType": "address",
          "name": "spender",
          "type": "address"
        }
      ],
      "name": "ERC20InvalidSpender",
      "type": "error"
    },
    {
      "inputs": [
        {
          "internalType": "address",
          "name": "owner",
          "type": "address"
        }
      ],
      "name": "OwnableInvalidOwner",
      "type": "error"
    },
    {
      "inputs": [
        {
          "internalType": "address",
          "name": "account",
          "type": "address"
        }
      ],
      "name": "OwnableUnauthorizedAccount",
      "type": "error"
    },
    {
      "anonymous": false,
      "inputs": [
        {
          "indexed": true,
          "internalType": "address",
          "name": "owner",
          "type": "address"
        },
        {
          "indexed": true,
          "internalType": "address",
          "name": "spender",
          "type": "address"
        },
        {
          "indexed": false,
          "internalType": "uint256",
          "name": "value",
          "type": "uint256"
        }
      ],
      "name": "Approval",
      "type": "event"
    },
    {
      "anonymous": false,
      "inputs": [
        {
          "indexed": true,
          "internalType": "address",
          "name": "previousOwner",
          "type": "address"
        },
        {
          "indexed": true,
          "internalType": "address",
          "name": "newOwner",
          "type": "address"
        }
      ],
      "name": "OwnershipTransferred",
      "type": "event"
    },
    {
      "anonymous": false,
      "inputs": [
        {
          "indexed": true,
          "internalType": "address",
          "name": "from",
          "type": "address"
        },
        {
          "indexed": true,
          "internalType": "address",
          "name": "to",
          "type": "address"
        },
        {
          "indexed": false,
          "internalType": "uint256",
          "name": "value",
          "type": "uint256"
        }
      ],
      "name": "Transfer",
      "type": "event"
    },
    {
      "inputs": [
        {
          "internalType": "address",
          "name": "owner",
          "type": "address"
        },
        {
          "internalType": "address",
          "name": "spender",
          "type": "address"
        }
      ],
      "name": "allowance",
      "outputs": [
        {
          "internalType": "uint256",
          "name": "",
          "type": "uint256"
        }
      ],
      "stateMutability": "view",
      "type": "function"
    },
    {
      "inputs": [
        {
          "internalType": "address",
          "name": "spender",
          "type": "address"
        },
        {
          "internalType": "uint256",
          "name": "value",
          "type": "uint256"
        }
      ],
      "name": "approve",
      "outputs": [
        {
          "internalType": "bool",
          "name": "",
          "type": "bool"
        }
      ],
      "stateMutability": "nonpayable",
      "type": "function"
    },
    {
      "inputs": [
        {
          "internalType": "address",
          "name": "account",
          "type": "address"
        }
      ],
      "name": "balanceOf",
      "outputs": [
        {
          "internalType": "uint256",
          "name": "",
          "type": "uint256"
        }
      ],
      "stateMutability": "view",
      "type": "function"
    },
    {
      "inputs": [
        {
          "internalType": "uint256",
          "name": "_amount",
          "type": "uint256"
        }
      ],
      "name": "burnDegenToken",
      "outputs": [],
      "stateMutability": "nonpayable",
      "type": "function"
    },
    {
      "inputs": [],
      "name": "decimals",
      "outputs": [
        {
          "internalType": "uint8",
          "name": "",
          "type": "uint8"
        }
      ],
      "stateMutability": "pure",
      "type": "function"
    },
    {
      "inputs": [],
      "name": "getBalance",
      "outputs": [
        {
          "internalType": "uint256",
          "name": "",
          "type": "uint256"
        }
      ],
      "stateMutability": "view",
      "type": "function"
    },
    {
      "inputs": [
        {
          "internalType": "address",
          "name": "to",
          "type": "address"
        },
        {
          "internalType": "uint256",
          "name": "amount",
          "type": "uint256"
        }
      ],
      "name": "mintDegenToken",
      "outputs": [],
      "stateMutability": "nonpayable",
      "type": "function"
    },
    {
      "inputs": [],
      "name": "name",
      "outputs": [
        {
          "internalType": "string",
          "name": "",
          "type": "string"
        }
      ],
      "stateMutability": "view",
      "type": "function"
    },
    {
      "inputs": [],
      "name": "owner",
      "outputs": [
        {
          "internalType": "address",
          "name": "",
          "type": "address"
        }
      ],
      "stateMutability": "view",
      "type": "function"
    },
    {
      "inputs": [
        {
          "internalType": "uint8",
          "name": "option",
          "type": "uint8"
        }
      ],
      "name": "redeemDGNToken",
      "outputs": [],
      "stateMutability": "nonpayable",
      "type": "function"
    },
    {
      "inputs": [],
      "name": "redeemStoreItems",
      "outputs": [
        {
          "internalType": "string",
          "name": "",
          "type": "string"
        }
      ],
      "stateMutability": "pure",
      "type": "function"
    },
    {
      "inputs": [],
      "name": "renounceOwnership",
      "outputs": [],
      "stateMutability": "nonpayable",
      "type": "function"
    },
    {
      "inputs": [
        {
          "internalType": "uint8",
          "name": "",
          "type": "uint8"
        }
      ],
      "name": "storeItems",
      "outputs": [
        {
          "internalType": "uint256",
          "name": "",
          "type": "uint256"
        }
      ],
      "stateMutability": "view",
      "type": "function"
    },
    {
      "inputs": [],
      "name": "symbol",
      "outputs": [
        {
          "internalType": "string",
          "name": "",
          "type": "string"
        }
      ],
      "stateMutability": "view",
      "type": "function"
    },
    {
      "inputs": [],
      "name": "totalSupply",
      "outputs": [
        {
          "internalType": "uint256",
          "name": "",
          "type": "uint256"
        }
      ],
      "stateMutability": "view",
      "type": "function"
    },
    {
      "inputs": [
        {
          "internalType": "address",
          "name": "to",
          "type": "address"
        },
        {
          "internalType": "uint256",
          "name": "value",
          "type": "uint256"
        }
      ],
      "name": "transfer",
      "outputs": [
        {
          "internalType": "bool",
          "name": "",
          "type": "bool"
        }
      ],
      "stateMutability": "nonpayable",
      "type": "function"
    },
    {
      "inputs": [
        {
          "internalType": "address",
          "name": "_receiver",
          "type": "address"
        },
        {
          "internalType": "uint256",
          "name": "_amount",
          "type": "uint256"
        }
      ],
      "name": "transferDegenToken",
      "outputs": [],
      "stateMutability": "nonpayable",
      "type": "function"
    },
    {
      "inputs": [
        {
          "internalType": "address",
          "name": "from",
          "type": "address"
        },
        {
          "internalType": "address",
          "name": "to",
          "type": "address"
        },
        {
          "internalType": "uint256",
          "name": "value",
          "type": "uint256"
        }
      ],
      "name": "transferFrom",
      "outputs": [
        {
          "internalType": "bool",
          "name": "",
          "type": "bool"
        }
      ],
      "stateMutability": "nonpayable",
      "type": "function"
    },
    {
      "inputs": [
        {
          "internalType": "address",
          "name": "newOwner",
          "type": "address"
        }
      ],
      "name": "transferOwnership",
      "outputs": [],
      "stateMutability": "nonpayable",
      "type": "function"
    }
  ],
  "bytecode": "0x60806040523480156200001157600080fd5b5060405162001fb038038062001fb08339818101604052810190620000379190620002e0565b806040518060400160405280600581526020017f446567656e0000000000000000000000000000000000000000000000000000008152506040518060400160405280600381526020017f44474e00000000000000000000000000000000000000000000000000000000008152508160039081620000b591906200058c565b508060049081620000c791906200058c565b505050600073ffffffffffffffffffffffffffffffffffffffff168173ffffffffffffffffffffffffffffffffffffffff16036200013f5760006040517f1e4fbdf700000000000000000000000000000000000000000000000000000000815260040162000136919062000684565b60405180910390fd5b6200015081620001b060201b60201c565b50606460066000600160ff1681526020019081526020016000208190555060c860066000600260ff1681526020019081526020016000208190555061012c60066000600360ff1681526020019081526020016000208190555050620006a1565b6000600560009054906101000a900473ffffffffffffffffffffffffffffffffffffffff16905081600560006101000a81548173ffffffffffffffffffffffffffffffffffffffff021916908373ffffffffffffffffffffffffffffffffffffffff1602179055508173ffffffffffffffffffffffffffffffffffffffff168173ffffffffffffffffffffffffffffffffffffffff167f8be0079c531659141344cd1fd0a4f28419497f9722a3daafe3b4186f6b6457e060405160405180910390a35050565b600080fd5b600073ffffffffffffffffffffffffffffffffffffffff82169050919050565b6000620002a8826200027b565b9050919050565b620002ba816200029b565b8114620002c657600080fd5b50565b600081519050620002da81620002af565b92915050565b600060208284031215620002f957620002f862000276565b5b60006200030984828501620002c9565b91505092915050565b600081519050919050565b7f4e487b7100000000000000000000000000000000000000000000000000000000600052604160045260246000fd5b7f4e487b7100000000000000000000000000000000000000000000000000000000600052602260045260246000fd5b600060028204905060018216806200039457607f821691505b602082108103620003aa57620003a96200034c565b5b50919050565b60008190508160005260206000209050919050565b60006020601f8301049050919050565b600082821b905092915050565b600060088302620004147fffffffffffffffffffffffffffffffffffffffffffffffffffffffffffffffff82620003d5565b620004208683620003d5565b95508019841693508086168417925050509392505050565b6000819050919050565b6000819050919050565b60006200046d62000467620004618462000438565b62000442565b62000438565b9050919050565b6000819050919050565b62000489836200044c565b620004a1620004988262000474565b848454620003e2565b825550505050565b600090565b620004b8620004a9565b620004c58184846200047e565b505050565b5b81811015620004ed57620004e1600082620004ae565b600181019050620004cb565b5050565b601f8211156200053c576200050681620003b0565b6200051184620003c5565b8101602085101562000521578190505b620005396200053085620003c5565b830182620004ca565b50505b505050565b600082821c905092915050565b6000620005616000198460080262000541565b1980831691505092915050565b60006200057c83836200054e565b9150826002028217905092915050565b620005978262000312565b67ffffffffffffffff811115620005b357620005b26200031d565b5b620005bf82546200037b565b620005cc828285620004f1565b600060209050601f831160018114620006045760008415620005ef578287015190505b620005fb85826200056e565b8655506200066b565b601f1984166200061486620003b0565b60005b828110156200063e5784890151825560018201915060208501945060208101905062000617565b868310156200065e57848901516200065a601f8916826200054e565b8355505b6001600288020188555050505b505050505050565b6200067e816200029b565b82525050565b60006020820190506200069b600083018462000673565b92915050565b6118ff80620006b16000396000f3fe608060405234801561001057600080fd5b50600436106101215760003560e01c80636985ce0e116100ad57806395d89b411161007157806395d89b41146102f8578063a9059cbb14610316578063dd62ed3e14610346578063f195bab514610376578063f2fde38b1461039257610121565b80636985ce0e1461026857806370a0823114610284578063715018a6146102b457806383c1945f146102be5780638da5cb5b146102da57610121565b806318160ddd116100f457806318160ddd146101b057806323b872dd146101ce5780632dc64e12146101fe578063313ce5671461021a57806366cc25371461023857610121565b80630172d0331461012657806306fdde0314610144578063095ea7b31461016257806312065fe014610192575b600080fd5b61012e6103ae565b60405161013b919061123b565b60405180910390f35b61014c6103d4565b604051610159919061123b565b60405180910390f35b61017c600480360381019061017791906112f6565b610466565b6040516101899190611351565b60405180910390f35b61019a610489565b6040516101a7919061137b565b60405180910390f35b6101b861050a565b6040516101c5919061137b565b60405180910390f35b6101e860048036038101906101e39190611396565b610514565b6040516101f59190611351565b60405180910390f35b610218600480360381019061021391906112f6565b610543565b005b6102226105a9565b60405161022f9190611405565b60405180910390f35b610252600480360381019061024d919061144c565b6105ae565b60405161025f919061137b565b60405180910390f35b610282600480360381019061027d91906112f6565b6105c6565b005b61029e60048036038101906102999190611479565b6105dc565b6040516102ab919061137b565b60405180910390f35b6102bc610624565b005b6102d860048036038101906102d3919061144c565b610638565b005b6102e261076d565b6040516102ef91906114b5565b60405180910390f35b610300610797565b60405161030d919061123b565b60405180910390f35b610330600480360381019061032b91906112f6565b610829565b60405161033d9190611351565b60405180910390f35b610360600480360381019061035b91906114d0565b61084c565b60405161036d919061137b565b60405180910390f35b610390600480360381019061038b9190611510565b6108d3565b005b6103ac60048036038101906103a79190611479565b610936565b005b606060006040518060800160405280605481526020016118766054913990508091505090565b6060600380546103e39061156c565b80601f016020809104026020016040519081016040528092919081815260200182805461040f9061156c565b801561045c5780601f106104315761010080835404028352916020019161045c565b820191906000526020600020905b81548152906001019060200180831161043f57829003601f168201915b5050505050905090565b6000806104716109bc565b905061047e8185856109c4565b600191505092915050565b60003073ffffffffffffffffffffffffffffffffffffffff166370a08231336040518263ffffffff1660e01b81526004016104c491906114b5565b602060405180830381865afa1580156104e1573d6000803e3d6000fd5b505050506040513d601f19601f8201168201806040525081019061050591906115b2565b905090565b6000600254905090565b60008061051f6109bc565b905061052c8582856109d6565b610537858585610a6a565b60019150509392505050565b8061054d336105dc565b101561058e576040517f08c379a000000000000000000000000000000000000000000000000000000000815260040161058590611651565b60405180910390fd5b6105983382610466565b506105a4338383610514565b505050565b600090565b60066020528060005260406000206000915090505481565b6105ce610b5e565b6105d88282610be5565b5050565b60008060008373ffffffffffffffffffffffffffffffffffffffff1673ffffffffffffffffffffffffffffffffffffffff168152602001908152602001600020549050919050565b61062c610b5e565b6106366000610c67565b565b6000600660008360ff1660ff1681526020019081526020016000205411610694576040517f08c379a000000000000000000000000000000000000000000000000000000000815260040161068b906116bd565b60405180910390fd5b60038160ff1611156106db576040517f08c379a00000000000000000000000000000000000000000000000000000000081526004016106d290611729565b60405180910390fd5b600660008260ff1660ff168152602001908152602001600020546106fe336105dc565b101561073f576040517f08c379a0000000000000000000000000000000000000000000000000000000008152600401610736906117bb565b60405180910390fd5b61076961074a61076d565b600660008460ff1660ff16815260200190815260200160002054610829565b5050565b6000600560009054906101000a900473ffffffffffffffffffffffffffffffffffffffff16905090565b6060600480546107a69061156c565b80601f01602080910402602001604051908101604052809291908181526020018280546107d29061156c565b801561081f5780601f106107f45761010080835404028352916020019161081f565b820191906000526020600020905b81548152906001019060200180831161080257829003601f168201915b5050505050905090565b6000806108346109bc565b9050610841818585610a6a565b600191505092915050565b6000600160008473ffffffffffffffffffffffffffffffffffffffff1673ffffffffffffffffffffffffffffffffffffffff16815260200190815260200160002060008373ffffffffffffffffffffffffffffffffffffffff1673ffffffffffffffffffffffffffffffffffffffff16815260200190815260200160002054905092915050565b806108dd336105dc565b101561091e576040517f08c379a000000000000000000000000000000000000000000000000000000000815260040161091590611651565b60405180910390fd5b6109283382610466565b506109333382610d2d565b50565b61093e610b5e565b600073ffffffffffffffffffffffffffffffffffffffff168173ffffffffffffffffffffffffffffffffffffffff16036109b05760006040517f1e4fbdf70000000000000000000000000000000000000000000000000000000081526004016109a791906114b5565b60405180910390fd5b6109b981610c67565b50565b600033905090565b6109d18383836001610daf565b505050565b60006109e2848461084c565b90507fffffffffffffffffffffffffffffffffffffffffffffffffffffffffffffffff8114610a645781811015610a54578281836040517ffb8f41b2000000000000000000000000000000000000000000000000000000008152600401610a4b939291906117db565b60405180910390fd5b610a6384848484036000610daf565b5b50505050565b600073ffffffffffffffffffffffffffffffffffffffff168373ffffffffffffffffffffffffffffffffffffffff1603610adc5760006040517f96c6fd1e000000000000000000000000000000000000000000000000000000008152600401610ad391906114b5565b60405180910390fd5b600073ffffffffffffffffffffffffffffffffffffffff168273ffffffffffffffffffffffffffffffffffffffff1603610b4e5760006040517fec442f05000000000000000000000000000000000000000000000000000000008152600401610b4591906114b5565b60405180910390fd5b610b59838383610f86565b505050565b610b666109bc565b73ffffffffffffffffffffffffffffffffffffffff16610b8461076d565b73ffffffffffffffffffffffffffffffffffffffff1614610be357610ba76109bc565b6040517f118cdaa7000000000000000000000000000000000000000000000000000000008152600401610bda91906114b5565b60405180910390fd5b565b600073ffffffffffffffffffffffffffffffffffffffff168273ffffffffffffffffffffffffffffffffffffffff1603610c575760006040517fec442f05000000000000000000000000000000000000000000000000000000008152600401610c4e91906114b5565b60405180910390fd5b610c6360008383610f86565b5050565b6000600560009054906101000a900473ffffffffffffffffffffffffffffffffffffffff16905081600560006101000a81548173ffffffffffffffffffffffffffffffffffffffff021916908373ffffffffffffffffffffffffffffffffffffffff1602179055508173ffffffffffffffffffffffffffffffffffffffff168173ffffffffffffffffffffffffffffffffffffffff167f8be0079c531659141344cd1fd0a4f28419497f9722a3daafe3b4186f6b6457e060405160405180910390a35050565b600073ffffffffffffffffffffffffffffffffffffffff168273ffffffffffffffffffffffffffffffffffffffff1603610d9f5760006040517f96c6fd1e000000000000000000000000000000000000000000000000000000008152600401610d9691906114b5565b60405180910390fd5b610dab82600083610f86565b5050565b600073ffffffffffffffffffffffffffffffffffffffff168473ffffffffffffffffffffffffffffffffffffffff1603610e215760006040517fe602df05000000000000000000000000000000000000000000000000000000008152600401610e1891906114b5565b60405180910390fd5b600073ffffffffffffffffffffffffffffffffffffffff168373ffffffffffffffffffffffffffffffffffffffff1603610e935760006040517f94280d62000000000000000000000000000000000000000000000000000000008152600401610e8a91906114b5565b60405180910390fd5b81600160008673ffffffffffffffffffffffffffffffffffffffff1673ffffffffffffffffffffffffffffffffffffffff16815260200190815260200160002060008573ffffffffffffffffffffffffffffffffffffffff1673ffffffffffffffffffffffffffffffffffffffff168152602001908152602001600020819055508015610f80578273ffffffffffffffffffffffffffffffffffffffff168473ffffffffffffffffffffffffffffffffffffffff167f8c5be1e5ebec7d5bd14f71427d1e84f3dd0314c0f7b2291e5b200ac8c7c3b92584604051610f77919061137b565b60405180910390a35b50505050565b600073ffffffffffffffffffffffffffffffffffffffff168373ffffffffffffffffffffffffffffffffffffffff1603610fd8578060026000828254610fcc9190611841565b925050819055506110ab565b60008060008573ffffffffffffffffffffffffffffffffffffffff1673ffffffffffffffffffffffffffffffffffffffff16815260200190815260200160002054905081811015611064578381836040517fe450d38c00000000000000000000000000000000000000000000000000000000815260040161105b939291906117db565b60405180910390fd5b8181036000808673ffffffffffffffffffffffffffffffffffffffff1673ffffffffffffffffffffffffffffffffffffffff16815260200190815260200160002081905550505b600073ffffffffffffffffffffffffffffffffffffffff168273ffffffffffffffffffffffffffffffffffffffff16036110f45780600260008282540392505081905550611141565b806000808473ffffffffffffffffffffffffffffffffffffffff1673ffffffffffffffffffffffffffffffffffffffff168152602001908152602001600020600082825401925050819055505b8173ffffffffffffffffffffffffffffffffffffffff168373ffffffffffffffffffffffffffffffffffffffff167fddf252ad1be2c89b69c2b068fc378daa952ba7f163c4a11628f55a4df523b3ef8360405161119e919061137b565b60405180910390a3505050565b600081519050919050565b600082825260208201905092915050565b60005b838110156111e55780820151818401526020810190506111ca565b60008484015250505050565b6000601f19601f8301169050919050565b600061120d826111ab565b61121781856111b6565b93506112278185602086016111c7565b611230816111f1565b840191505092915050565b600060208201905081810360008301526112558184611202565b905092915050565b600080fd5b600073ffffffffffffffffffffffffffffffffffffffff82169050919050565b600061128d82611262565b9050919050565b61129d81611282565b81146112a857600080fd5b50565b6000813590506112ba81611294565b92915050565b6000819050919050565b6112d3816112c0565b81146112de57600080fd5b50565b6000813590506112f0816112ca565b92915050565b6000806040838503121561130d5761130c61125d565b5b600061131b858286016112ab565b925050602061132c858286016112e1565b9150509250929050565b60008115159050919050565b61134b81611336565b82525050565b60006020820190506113666000830184611342565b92915050565b611375816112c0565b82525050565b6000602082019050611390600083018461136c565b92915050565b6000806000606084860312156113af576113ae61125d565b5b60006113bd868287016112ab565b93505060206113ce868287016112ab565b92505060406113df868287016112e1565b9150509250925092565b600060ff82169050919050565b6113ff816113e9565b82525050565b600060208201905061141a60008301846113f6565b92915050565b611429816113e9565b811461143457600080fd5b50565b60008135905061144681611420565b92915050565b6000602082840312156114625761146161125d565b5b600061147084828501611437565b91505092915050565b60006020828403121561148f5761148e61125d565b5b600061149d848285016112ab565b91505092915050565b6114af81611282565b82525050565b60006020820190506114ca60008301846114a6565b92915050565b600080604083850312156114e7576114e661125d565b5b60006114f5858286016112ab565b9250506020611506858286016112ab565b9150509250929050565b6000602082840312156115265761152561125d565b5b6000611534848285016112e1565b91505092915050565b7f4e487b7100000000000000000000000000000000000000000000000000000000600052602260045260246000fd5b6000600282049050600182168061158457607f821691505b6020821081036115975761159661153d565b5b50919050565b6000815190506115ac816112ca565b92915050565b6000602082840312156115c8576115c761125d565b5b60006115d68482850161159d565b91505092915050565b7f596f7520646f206e6f74206861766520656e6f75676820446567656e20546f6b60008201527f656e732e00000000000000000000000000000000000000000000000000000000602082015250565b600061163b6024836111b6565b9150611646826115df565b604082019050919050565b6000602082019050818103600083015261166a8161162e565b9050919050565b7f496e76616c6964206974656d206f7074696f6e2e000000000000000000000000600082015250565b60006116a76014836111b6565b91506116b282611671565b602082019050919050565b600060208201905081810360008301526116d68161169a565b9050919050565b7f496e76616c6964206974656d206f7074696f6e00000000000000000000000000600082015250565b60006117136013836111b6565b915061171e826116dd565b602082019050919050565b6000602082019050818103600083015261174281611706565b9050919050565b7f496e73756666696369656e742066756e647320746f2072656465656d2074686560008201527f206974656d2e0000000000000000000000000000000000000000000000000000602082015250565b60006117a56026836111b6565b91506117b082611749565b604082019050919050565b600060208201905081810360008301526117d481611798565b9050919050565b60006060820190506117f060008301866114a6565b6117fd602083018561136c565b61180a604083018461136c565b949350505050565b7f4e487b7100000000000000000000000000000000000000000000000000000000600052601160045260246000fd5b600061184c826112c0565b9150611857836112c0565b925082820190508082111561186f5761186e611812565b5b9291505056fe446567656e2053686f70204974656d733a20312e2044474e204e4654283130302044474e290a322e2044474e20547368697274283135302044474e290a332e2044474e20506f7374657273283230302044474e29a26469706673582212203e45450b957cbae69c38ceb3730d477d63b27b5ceef4ff0bbc04f7197fef5cd064736f6c63430008140033",
  "linkReferences": {},
  "deployedLinkReferences": {}
}